:020000040000fa
:080000000004040000000000f0
:020000040000fa
:1000080004140000081400000c1400001014000070
:10001800141400000c1500000c1500000c1500004d
:10002800181400001c140000201400002414000000
:100038000c150000281400002c14000030140000d7
:1000480034140000381400003c1400004014000070
:1000580044140000481400000c1500000c150000a2
:100068004c140000501400005414000058140000f0
:100078005c1400000c1500006014000064140000fb
:100088000c150000681400006c14000070140000c7
:1000980074140000781400007c1400008014000020
:1000a80084140000881400000c1500000c150000d2
:1000b8000c1500008c14000090140000941400002b
:1000c800981400009c140000a0140000a414000060
:1000d800a8140000ac1400000c1500000c1500005a
:1000e8000c150000b0140000b41400000c1500003a
:1000f8000c150000b8140000bc1400000c1500001a
:100108000c1500000c1500000c1500000c15000063
:100118000c1500000c150000c01400000c150000a0
:100128000c150000c4140000c8140000cc14000012
:100138000c1500000c1500000c1500000c15000033
:10014800d01400000c1500000c1500000c15000060
:100158000c150000d41400000c1500000c1500004c
:100168000c150000d8140000dc140000e014000096
:10017800e4140000e8140000ec140000f01400007f
:10018800f4140000f8140000fc140000001500002e
:1001980004150000081500000c1500000c150000df
:1001a8000c1500000c1500000c1500000c150000c3
:1001b8000c1500000c1500000c1500000c150000b3
:1001c8000c1500000c1500000c1500000c150000a3
:1001d8000c1500000c1500000c1500000c15000093
:1001e8000c1500000c1500000c1500000c15000083
:0801f8000c1500000c150000bd
:020000040000fa
:100800006f9720000e7f24000e018800000000007a
:100810000c000700a0342100010020001100070097
:10082000000020000000e000020032000000020092
:10083000000000007a120200000000000040da0010
:100840000000fe004440a900000c20000000e00071
:100850000300320000002000a00188004440a800ee
:100860000000060091018800800078000000eb0085
:1008700015003700e280400032a0b4009101ba00b8
:10088000e280400032a0b4009102ba00e280400051
:1008900032a0b4000002eb00472bde00f507b200e7
:1008a000602ce10004003a000059eb008301e900ec
:1008b000fdff3e00040037006128e1000100320026
:1008c0000082eb00040007001101ba000200e00002
:1008d000e8ff3a00000006003159ba008301e90040
:1008e0000c0032002159ba008301e90008003200ef
:1008f0000400e00003003a00e280400032a0b400af
:10090000f5ff370011d9ba008301e900faff3a0078
:100910008100e800e180400032a0b4000000060041
:100920006022b800060220000000d0008180d200c2
:100930000482d2008582d2000000a0000202520090
:1009400083825a00030031000202420083824a007f
:100950000000a1000603e900f3ff3a0000000600d2
:10096000020ab900001bb9000200b8008100420071
:10097000810043000000060080017800020037007b
:1009800081597800040178000202e900e00f51006b
:08099000fbff3a000000060025
:020000040000fa
:100998001201000010010000000000000008000023
:1009a800d80400003c000000020000000102000022
:1009b80000010000090200002900000001010000f8
:1009c80000c000003209000004000000000200001e
:1009d80003000000000000000921000011010000d0
:1009e80000010000221d0000000700000581000032
:1009f800034000000001000007050000010300009b
:100a08004000000001000000040300000904000089
:100a1800340300004d00000069000000630000007e
:100a2800720000006f000000630000006800000012
:100a38006900000070000000200000005400000061
:100a48006500000063000000680000006e00000000
:100a58006f0000006c0000006f00000067000000dd
:100a68007900000020000000490000006e0000002e
:100a7800630000002e00000026030000550000005f
:100a88005300000042000000200000004800000061
:100a9800490000004400000020000000420000005f
:100aa8006f0000006f000000740000006c00000080
:100ab8006f00000061000000640000006500000095
:100ac8007200000006000000ff09000001a10000fc
:100ad800011900000129000040150000002600004f
:100ae800ff0000007508000095400000810000002c
:100af800190100002940000091000000c00000001a
:100b0800de840000088500000c8500004085000098
:020000040000fa
:100b18000080fb008181fb000000400080814100d3
:100b2800c219dd00028020000281410012f0a100fc
:100b3800e0cf500002003a00e193200001003700a6
:100b480021942000823078000080200003004000bb
:100b580010e0a000000006007049800081c0b300ca
:100b6800e70f500009003e00804078004cc9bf00e4
:100b780002003a0010c0b30003003700e14f5000f4
:100b880002003a0020c0b3004ce9b7000180fb0026
:100b98002e29b500104a8000014878006096200090
:100ba800704a88002c09ab00070032000f0037009c
:100bb80050498000724a800030597800724a880093
:100bc800504988008140e900e0cf5000f8ff3a0022
:100bd8000000060050498000724a800030597800b1
:100be800724a8800504988008140e900e0cf5000ef
:100bf800f8ff3a0000000600e195200091407800d7
:100c080000c8b30080cf50002c003a0000ccb300dd
:100c18002ce9b70061c9bf00e24f5000080032005c
:100c2800e34f500015003200e14f500022003a0017
:100c3800c04c280050498800200120001a003700c5
:100c480060c9bf000080fb00000040004158280038
:100c58006100780050498800801f7800204090008b
:100c68002ee9b7004f007800801f780030409000d0
:100c78002fe9b7004f0078000000060060c9bf00e8
:100c8800e24f50000a003e0060c9bf000080fb0030
:100c98000000400061582800610078005049880031
:100ca800104078000080fb007049880000000600b2
:100cb8002c69ef00000006002c69ef000000060018
:100cc8006669ef006769ef005ec9bf007f006000da
:100cd800e10f50000b003200e20f50000b00320011
:100ce800e00f50001c003a002ce9a8006609a80093
:100cf80080498000e10f500017003a006629a800db
:100d0800150037002ce9a800130037002ce9a800cb
:100d180062c9bf000500330062c9bf006f006000f0
:100d280000004000e19320000400370062c9bf00c2
:100d38006f0060000000400021942000e10078006e
:100d48000040280091006000808f500002003a00a7
:100d580010c0b30066e9b7002ce9ab00050032000b
:100d680060962000504988002c09a80020c0b300d4
:100d78002ee9b70000000600aa24ab000d003200df
:100d8800424a80009240900000c8b30080cf5000d3
:100d980007003a00104a80009040900040c8b30015
:100da80080cf500002003a0068404000104198008f
:100db800aa24a9000008200050248800000006008a
:100dc800881f7800104a8000100478004e44de0026
:100dd80061446400a0498000e80f50000a003a000e
:100de80060c9bf000080fb00b0248800b0248000e8
:100df800e00f50000200320000012000010037001f
:100e080040002000a04988004dc9bf00e14f5000b4
:100e180011003a0060962000114a80009000980066
:100e28004dff0700104a8000c194200091407800cf
:100e3800e2cf500002003a0041c8b3000400370076
:100e480081ccb300e04f54000100320081c8b300e8
:100e5800114098000c00370039c9bf0009003b0059
:100e6800c1932000914078008180fb003dc9bf00fc
:100e78004800dd00010070000100320000000100a0
:100e880039e9a9004d69ef004f0478000000060019
:100e98000001eb009249880082007800400720009a
:100ea800570507008284a90000012000002488005b
:100eb800000006008284a800000120005024880059
:100ec80010002000904988000001eb008000eb0032
:100ed800500720004a05370060c9bf00e14f5000a5
:100ee8000b003a005ec9bf007f40600008003a006e
:100ef8002ce9a8005fc9bf00e34f500003003a0087
:100f08001000200080498800010037003029ef00d8
:100f180060c9bf0073003a005ec9bf007f4060002f
:100f2800e24f50006f003a0062c9bf006f40600096
:100f38006c00320062c9bf006f006000e10f500012
:100f480068003c0000022000a1498000808f50000a
:100f580064003a002ce9a80062c9bf000900330008
:100f680062c9bf006f00600000004000e1932000ec
:100f7800e100780062c9bf006f0060006295200040
:100f88000800370062c9bf006f0060000000400021
:100f980021942000e100780062c9bf006f00600062
:100fa8004295200062407800229620001241780085
:100fb800e04f5100060035002296200012417800cb
:100fc8006f01610002014100e39320000500370032
:100fd80022962000124178006f0161000201410051
:100fe8002394200081317900f29520001241780085
:100ff800e34f510016003a000000eb00910f10007b
:101008000e003d0062c9bf00050033002296200093
:10101800124178006f0161006395200004003700d9
:1010280022962000124178006f016100439520004c
:10103800634079000014a00080717900114190008c
:1010480040c8b300004071009040980000000600be
:101058006240600003003a000000eb00910f1000ae
:1010680016003d0062c9bf0005003300229620002b
:10107800124178006f016100639520000400370079
:1010880022962000124178006f01610043952000ec
:10109800634079000014a10080717900114090002c
:1010a800b047b2000064a0009040980022002000e1
:1010b80050002000d20407000400370011409000bf
:1010c800b047b2000064a0009040980062c9bf0019
:1010d8006f00600000004000a14a200001004000ad
:1010e8001014a10000000600889fbe002ce9a8008b
:1010f800ac24ef00088020000901200009017800d5
:101108008000eb000800780019fe07009424a8006e
:101118005469ef005669ef005569ef005769ef0011
:101128004669ef009424a90064004400104a88002e
:10113800484a8800584a880060c9bf0036e9b700a5
:1011480002003a00a9498800060037001200200072
:101158006193200010002000a9040700000220006d
:10116800a04988004f04be00000006005ec9bf0009
:101178000046b20034003a005fc9bf000080fb009f
:1011880001002000eb0f5000e08f58002e003e00b9
:101198000060010013003700130037002a003700f1
:1011a8001100370028003700060037000900370013
:1011b8002100370009003700070037000b0037000f
:1011c800140037002ce9a80080002000a0498800fe
:1011d8000000060088fe3700c3ff37006093200038
:1011e80006003700b6fe37003bff370062c9bf0074
:1011f8000080fb00619420000100400050498800f5
:101208002c09a80010c0b3002ee9b7002ce9a800eb
:10121800000006002ce9a80062c9bf000080fb009e
:1012280061942000821f7800029620009270780056
:101238004f017800000006000001eb008000eb0081
:10124800200020006e040700000006009ec0a900d0
:101258008ea4ef008aa4ef00aa24ef00ac24ef00cc
:10126800a624ef00a824ef008644a900f009200076
:1012780080248800602488008804a800008020005a
:101288004800de00c02488000028ef000228ef0094
:101298000428ef000628ef000828ef000a28ef00ce
:1012a8000c28ef000e28ef009424a8009624ef00e5
:1012b80094a4a9009424a900810020000500370007
:1012c800512488002c69ef003969ef003a69ef0072
:1012d8003b69ef005024800068006000f8ff3a0086
:1012e80011002000d14a8800e14a8800404988005e
:1012f8002049880090498800f049880054e9b700df
:1013080056e9b700204a8800004a880055e9b70026
:1013180057e9b70041802000114a8800d100200019
:1013280051258800e19520001140880081c0b30054
:101338008000fd0000e8b7008000fd0041c8b30050
:101348008000fd0001e8b7008000fd0036e9b70025
:10135800a049880000000600889fbe008a1f780008
:1013680000447800814478000985fb006800650026
:10137800030032008040eb0008407800e4fd0700dd
:10138800640565000300320011c0b300084078000e
:10139800dffd07000884fb0008044400a04a200081
:1013a80009707c004f0578004f04be00000006005d
:1013b8000080fb00e0cf5000030032000000400036
:1013c800219420000200370000004000e193200033
:1013d80061007800e00f50000c003200904090004f
:1013e8000164a20011409800120098000348780098
:1013f800904090000144b2001140980010419000c4
:1014080081c8b300814071001140980000000600b7
:10141800e04f50000b003a0080c0b300514a8000f2
:1014280080487800514a8000e0952000900098009c
:10143800c0c8b3009040980068405000114a80002e
:101448000a0037008180fb000080fb00000040009c
:1014580080804000c208dd0000802000810040003c
:101468001141900040c8b3000040710090409800be
:101478000000060094a4ab000d0032000080fb00c1
:101488000000400021942000610178001202be0093
:10149800040078000004b200010020000089be00aa
:1014a8000004200001002000121968001291680051
:1014b80000000600d04a8000e00f50001a003a00f1
:1014c80011002000d14a8800e04a8000e00f500057
:1014d80015003a00e14a8800d19420009140780034
:1014e800e2cf500005003a00114a80008048780099
:1014f80080ccb3009040980000000600e1cf500077
:1015080009003a00904a880080c0b300514a800020
:1015180080487800514a8000e095200090009800ab
:1015280000c8b3009040980000000600404a8000c0
:1015380090407800a2932000124178000281fb00bd
:101548003bc9bf004800dd00020070000181fb00bc
:10155800800f510001003600804078000181fb00b7
:10156800020050003ae9b7004800de003be9b70046
:101578000040eb00120037007493200014427800fa
:101588000482fb0082932000124178004811dd009c
:101598008081fb00040171006496200064d9790001
:1015a8000001fd0037e9b7000001fd004811de0029
:1015b8000001fd0038e9b7000001fd000040e80027
:1015c800814f5000ecff3900a19320009140780032
:1015d8008180fb003bc9bf004800dd0001007000ae
:1015e800514a80000e00320080c0b3008048780065
:1015f800504a8000619620001100980001002400e4
:10160800424a80009280600002003a0081ccb30018
:101618000100370081c8b30011409800000006009f
:1016280080c0b30080487800514a8000e0952000cf
:101638009000980040c8b30090409800c1932000e3
:10164800914078008180fb003dc9bf004800dd0063
:1016580001007000010032000000010039e9a90012
:1016680030498000e00f500001003a0091ff070068
:10167800000006004dc9bf00e24f500001003a00cb
:10168800aaff37004d69ef00904a8000e00f500034
:1016980009003a0080c0b300514a800080487800b1
:1016a800514a8000e095200090009800c0c8b3001f
:1016b80090409800000006005229ef000000060044
:1016c8002829ef002429ef004dc9bf00e24f500040
:1016d80005003a0080c0b300514a80008048780075
:1016e800514a80001200370064c9bf000080fb0027
:1016f8005196200091407800c808dd0000807000f5
:1017080071498000810f50000700310064c9bf0093
:101718000080fb005196200091407800c808dd0049
:1017280000807000704988000bfd0700114a800096
:10173800609620009000980080ccb30090409800fc
:101748000000060094a4a9002ce9ab0017003a0099
:1017580039c9bf0009003b0020c0b3004de9b700fc
:1017680020498000e00f500001003a00d4ff070034
:101778005c29ef005a29ef000000060080c0b30082
:10178800514a800080487800514a8000e095200046
:1017980090009800c0c8b30090409800684050007e
:1017a800114a800090409800000006005ec9bf0002
:1017b8000c003b0010c0b3004de9b7004049800061
:1017c800e00f500001003a00bdff07005c29ef0060
:1017d8005a29ef0030498000e00f500011003a000c
:1017e80034ff370020c0b3004de9b70080c0b30014
:1017f800514a800080487800514a8000e0952000d6
:101808009000980040c8b300904098005c29ef0011
:101818005a29ef0030498000e00f500001003a00db
:1018280024ff070000000600881f78000040eb0036
:101838004ce9b7000004eb003849880048498800a3
:1018480028498800984a88000004fd004de9b7003f
:101858000004fd00124a8000924090000174a1002b
:1018680011419800924090000174a1001141980024
:10187800524a8000924090000174a10011419800e2
:101888002ce9b7007849880039e9b7003ae9b70088
:101898003be9b70035fe07000801780082007800b0
:1018a80030002000d6020700a6ff07004f0478008a
:1018b80000000600d0c2b30058e9b7000395200025
:1018c800934178008381fb00030078000020a10089
:1018d800e00f50001c003a00c219de004219dd007a
:1018e8000480200084004100414a8800514a880051
:1018f8006402790002c02300020262000240230051
:10190800820f52000f003a00910290000082fb0003
:10191800e29520009542780005717a001102900046
:101928000402e800940098000040e800e74f5000e7
:10193800f5ff3600c219dd002080200002b07900d2
:10194800b9ff37004bff3700e80f500001003a009d
:101958001bfd070000000600889fbe00a04980000c
:10196800e00f50000e003a00a02488006024880090
:1019780030258800402588008644a900f009200009
:101988008024880060248800010037009404a8009f
:101998009404ab00fdff320010002000a04988002d
:1019a800a0498000e10f500009003a00a0248000ff
:1019b8000004b20006003a008aa4ef006024880000
:1019c8008c04a8008c84a80020002000a04988006e
:1019d8008084ab00050032008284ab000300320033
:1019e800000120000024880029fd07008824ab009e
:1019f8004a003a008a04ab00070032008c04ab00ae
:101a08000500320011fe070040002000a0498800b0
:101a180010002000502488008a84ab0005003200a2
:101a28008c84ab000300320022fd07000001200077
:101a3800502488008a44ab000f0032008c44ab006d
:101a480004003200120020008000eb003007200064
:101a58006b020700400020005024880058c9bf00ce
:101a6800020032000040e90058e9b70058c9bf0039
:101a780001003a008ffe07008ae4ab000300320041
:101a88008ce4ab0001003200bbfc07008a24ab00e9
:101a9800090032008c24ab0007003200120020003d
:101aa8008000eb00f0ff2700550207008ea4ef002e
:101ab8002000200050248800a0498000e30f500037
:101ac800160036008c64ab00140032000044eb00b2
:101ad800890020008a64ab00100032009024800046
:101ae80050e9b7000080fb004400de0051e9b70070
:101af8005924880002003a006eff070004003700ee
:101b08000001eb0001952000200720003c0207009f
:101b18000844e800e34f5400eeff36008ec0a900e9
:101b28004f04be0000000600f0e12f00f422b600ca
:101b3800f022b600f0fc2f00ec22b600e822b60036
:101b4800d8c2a800d8e2a8000000eb00704b8800bb
:101b5800804b880011002000914b880092cab30086
:101b68000001fd00d0e8b7000001fd0002802a0056
:101b78009246880022002000a24688008000fd00ce
:101b88001ee9b7008000fd00d6e8b7001aa9ef00eb
:101b98001ca9ef0018e9b700000006002ca3ef000d
:101ba800aafd0700e0ff370010498000e00f500051
:101bb80002003a0000712200104988001149800093
:101bc8008100e900114988008824ab00090032002f
:101bd800e08f500035003a0000182000f0a2b6004f
:101be80081178000f0e72f00008060001c003200a1
:101bf80029003700a0498000e00f500003003a0098
:101c0800f0e72f00f022b60015003700e10f500072
:101c180003003a0000182000f022b7001e00370029
:101c2800e20f500003003a0000182000f022b7002d
:101c38000b003700e40f500003003a00f0e72f00d4
:101c4800f022b60014003700f00f500007003a00e9
:101c5800e08f500015003a0000182000f0a2b600ee
:101c6800f0f92f00f022b600000006000202200062
:101c7800820f50000d003a00e08f50000b003a0030
:101c880000182000f0a2b60081178000f0e72f00ae
:101c98000080600003003a0000062000f022b70030
:101ca80000000600f0f92f00f022b6000000060040
:101cb800728d2000124178000281fb000300200091
:101cc8004a18dd00c610de00810070004a10dd00f1
:101cd80022042400023b88008000fd0032e0b700a7
:101ce8008000fd000081eb000208bb001000fc0032
:101cf80050052000303b8800a00a2000303b8800b7
:101d080061e7a8000000000000000000003b800020
:101d1800e00f5000fdff35000000060030002400f1
:101d2800003b88000001eb001e0037000080fb002c
:101d380001002000d4488000e548800000005200df
:101d480081805a008000fd0032e0b7008000fd006d
:101d580082014100818d2000e18179000308bb00e8
:101d68008201e80083814100e18079000188bb009d
:101d78000281e8001000fc0050052000303b88007c
:101d8800a00a2000303b880061e7a800000000009e
:101d980000000000003b8000e00f5000fdff350010
:101da80018e9ed0018c9bf00e0ff3a0061c7a900b3
:101db800000006000400fa00e0bf9f00f1bf9f008a
:101dc80022032000124178006ff8970032e0b70034
:101dd800efb997001382ba00840078001300ba00a4
:101de8000001fd0032e0b7000001fd000080fa00ac
:101df80000000600889fbe008a1f7800d6c8bf0072
:101e080025003a00804b8000e00f500003003200ac
:101e18008000eb00908f100046013500704b800069
:101e2800e00f50000300320001002800108060001d
:101e380040013a00f1c3b3008081fb000289200011
:101e48000481200062f279000040e800814f5000d0
:101e5800f9ff360003c4b3008040eb0010c0b300a4
:101e680053fd0700704b880010c0b300d6e8b700d8
:101e78000040eb0000417800f1c3b3008081fb0013
:101e88000485200002f279000040e800814f5000ec
:101e9800faff36002701370010c8bf000080fb009a
:101ea8000100200062005000e0805800e60f50005a
:101eb800e08f58001f013e00006001000600370057
:101ec800430037005600370062003700b60037007d
:101ed800b90037001001370022c0b30002007800b3
:101ee80050e8b70080c3b30051e8b700020078009b
:101ef80052e8b70010c0b30053e8b7005468ef00c9
:101f080040c1b30055e8b7005668ef005768ef00c6
:101f180000c02e00f1ff2f0094468000a5468000e7
:101f2800040040008580480058e8b700c801de007a
:101f38000300780059e8b700010078005ae8b700b4
:101f48004808de005be8b7005ce8ef001ec9bf0088
:101f580018003a0031c0b3008000fd005ce8b7000b
:101f68008000fd0081cfb3008000fd005de8b70070
:101f78008000fd00b1cab3008000fd005ee8b70034
:101f88008000fd000001fd005fe8b7000001fd00d2
:101f980060e8b70081c0b3008000fd0061e8b700c9
:101fa8008000fd0062e8b70063e8b70064e8b700a6
:101fb80065e8ef00804b8000e00f5000ce00320053
:101fc8008002eb00908f1200da003500ca0037005b
:101fd80011c8bf0009003a00a1cab3008000fd0083
:101fe800d0e8b7008000fd0081bf2a009146880034
:101ff80021002000a14688000700370090cab300de
:10200800d0e8b70002802a0092468800220020000b
:10201800a246880010c0b3001ee9b700bc00370014
:1020280050c0b300d7e8b7000300370020ff07000f
:1020380049fe0700d768ec00718d200091407800b8
:10204800d0c8bf0080cf5000f8ff360061c7a90094
:10205800af003700d0488000e1488000e10f400021
:10206800e08f480010003a001281200012417800e9
:102078000281fb002381200093417800c819dd000c
:102088000280710032812000124178000281fb0039
:102098004381200093417800c819dd0082807100d7
:1020a800d0488800e1488800128120001241780059
:1020b8000281fb002381200093417800c819dd00cc
:1020c8000280710032812000124178000281fb00f9
:1020d8004381200093417800c819dd008280710097
:1020e800d2488000e3488000800f5100818f59005a
:1020f80087003a000044eb008a8d20008903200005
:102108002200370018c9bf008080fb008181400091
:102118000882fb008280540025002000801f780080
:10212800110009008500d800800078004f00780071
:1021380081004200e480400081804000028120004c
:1021480062c278000482fb00810041009140900047
:10215800c808dd008480700001b579000040e800ff
:1021680018e9b700d4488000e548800061024200c1
:10217800e0824a00d4488800e5488800fc4f5000b7
:1021880001003a00e5fe07000844e80052812000fb
:10219800124178000281fb000200d100804f5400f8
:1021a800d8ff39005a003700dcfe07001aa9ef00f3
:1021b8001ca9ef0056003700804b8000e00f50004c
:1021c800030032008002eb00908f120059003500a6
:1021d80070c0b30050e8b7001281200012417800a7
:1021e8000281fb002381200093417800c819dd009b
:1021f8000280710032812000124178000281fb00c8
:102208004381200093417800c819dd008280710065
:1022180051e8b7004801de000200780052e8b70034
:102228000100780053e8b7004808de0054e8b7001a
:1022380015c8bf0055e8b7000044eb000985200029
:10224800280037000881fb000300200014812000cb
:10225800144278000482fb00258120009542780012
:10226800c82add00048072003481200014427800fe
:102278000482fb004581200095427800c82add00d1
:10228800848072000200400083804800c9fe070075
:102298008882fb0054812000144278000482fb00ed
:1022a8000402d100048352000602b0000603430072
:1022b80006834400004b7800c803de0017439800eb
:1022c8008181fb00048052001002b0000000400031
:1022d8000080440003487800c818de0011409800c8
:1022e80008c4e80015c8bf000080fb000000d1004a
:1022f800804f5400d3ff390003c4b3000285200087
:1023080011c0b3000140780029fc0700804b880009
:10231800d668ef00070037009424ef000000eb00b8
:10232800000000000000e800e10f4000fcff3a0058
:102338000000fe004f0578004f04be0000000600b4
:10234800904b8000e00f50000100320016fe07009d
:10235800a0498000ff0f5000030036008824ab001e
:1023680001003a00a3fe0700000006000000060076
:102378000000060000000600000006007500370097
:1023880000000600d1c1b30010c0b300f2fb070083
:1023980003c4b300028920008040eb0010c0b300e2
:1023a80003fc0700704b880000000600804980008d
:1023b800e10f500011003a0090498000e10f5000f1
:1023c8000e003a008824a9003229ef0000e120001d
:1023d800004988002009ed0000498800fdff3a0007
:1023e8009444a80080702000004988002009ed006e
:1023f80000498800fdff3a009444a9000000060047
:10240800e10f500003003200e30f500004003a00cf
:1024180002003700dbff070001003700d7ff070085
:10242800100005000600fa002823ef002023a8006a
:102438000000eb00d0bf9f00703821000400370077
:1024480000000000dfb897008100e800d1bf9f00be
:10245800dfb89700808f5000f9ff36002023a900cd
:102468000000eb00d0bf9f00703821000400370047
:1024780000000000dfb897008100e800d1bf9f008e
:10248800dfb89700808f5000f9ff36002003ab00bb
:10249800feff32000018800001002000e0bf9f000e
:1024a800f1bf9f006fb89700ffb897004206200061
:1024b8000300200028f90700e0bf9f00f1bf9f003c
:1024c8006fb89700ffb89700f23f20000300200084
:1024d80011f90700e0bf9f00f1bf9f006fb8970098
:1024e800ffb897000080fa00000006002c03a9003e
:1024f800f0ff21002223b60024e3ef00f0f12f00c3
:102508002023b60021198000f00f2e000080600003
:102518000080a00020198800f0cf2f002023b600eb
:1025280030fc2f002223b60021e3a800bdff0700de
:1025380011c3b300814f500002003e000014040094
:102548000000000095fd070003fd07007cff070061
:10255800fdff37005ec9bf007f406000e14f5000bb
:1025680049003a0062c9bf0047003a005fc9bf008e
:10257800e64f500015003a0061c9bf0011c2b30010
:10258800814f5000040032008140e800814f500024
:102598000e003a000700370036c9bf00e14f50006f
:1025a8000a003a00004f2800504988009000200097
:1025b800030037006056280050498800d0012000e9
:1025c8007049880000ccb3002ce9b700e1952000e1
:1025d800914078000146b20000c2b30080cf50009d
:1025e80029003a005fc9bf000080fb0001002000fd
:1025f80062005000e0805800e90f5000e08f58005a
:1026080021003e0000600100090037001300370078
:102618001d0037001c0037001b0037001a00370068
:10262800190037001800370007003700120037007c
:102638004097200050498800100020007049880009
:1026480010ccb3000a00370000c8b3002ce9b7006b
:1026580061c9bf0074e9b700000006005097200068
:1026680050498800100020007049880010c8b30045
:102678002ce9b7000000060000c8b3002ce9b70039
:0c26880060c9bf0075e9b7000000060043
:020000040000fa
:102694006e090000060000000200000000000000b7
:1026a4000001000010080000c0000000000000004d
:1026b400d00800005400000000000000740900006d
:1026c4000200000000000000240900004a0000008d
:1026d40000000000000800001000000000000000de
:0426e40000000000f2
:020000040000fa
:0826e8000040da000000fe00d2
:020000040000fa
:102800000004040000000000741304000000000035
:1028100074130400000000007413040000000000a2
:102820007413040000000000741304000000000092
:102830007413040000000000741304000000000082
:102840007413040000000000741304000000000072
:102850007413040000000000741304000000000062
:102860007413040000000000741304000000000052
:102870007413040000000000741304000000000042
:102880007413040000000000741304000000000032
:102890007413040000000000741304000000000022
:1028a0007413040000000000741304000000000012
:1028b0007413040000000000741304000000000002
:1028c00074130400000000007413040000000000f2
:1028d00074130400000000007413040000000000e2
:1028e00074130400000000007413040000000000d2
:1028f00074130400000000007413040000000000c2
:1029000074130400000000007413040000000000b1
:1029100074130400000000007413040000000000a1
:102920007413040000000000741304000000000091
:102930007413040000000000741304000000000081
:102940007413040000000000741304000000000071
:102950007413040000000000741304000000000061
:102960007413040000000000741304000000000051
:102970007413040000000000741304000000000041
:102980007413040000000000741304000000000031
:102990007413040000000000741304000000000021
:1029a0007413040000000000741304000000000011
:1029b0007413040000000000741304000000000001
:1029c00074130400000000007413040000000000f1
:1029d00074130400000000007413040000000000e1
:1029e00074130400000000007413040000000000d1
:1029f00074130400000000007413040000000000c1
:102a000074130400000000007413040000000000b0
:102a100074130400000000007413040000000000a0
:020000040000fa
:020000040005f5
:0457f400ffff0000b3
:020000040000fa
:020000040005f5
:0457f800be230000cc
:020000040000fa
:020000040005f5
:0457fc007f3e0000ec
:00000001FF
