:020000040000fa
:08000000108104000000000063
:020000040000fa
:1000080004800000088000000c80000010800000c0
:10001800148000000c8100000c8100000c8100009d
:10002800188000001c800000208000002480000050
:100038000c810000288000002c8000003080000027
:1000480034800000388000003c80000040800000c0
:1000580044800000488000000c8100000c810000f2
:100068004c80000050800000548000005880000040
:100078005c8000000c81000060800000648000004b
:100088000c810000688000006c8000007080000017
:1000980074800000788000007c8000008080000070
:1000a80084800000888000000c8100000c81000022
:1000b8000c8100008c80000090800000948000007b
:1000c800988000009c800000a0800000a4800000b0
:1000d800a8800000ac8000000c8100000c810000aa
:1000e8000c810000b0800000b48000000c8100008a
:1000f8000c810000b8800000bc8000000c8100006a
:100108000c8100000c8100000c8100000c810000b3
:100118000c8100000c810000c08000000c810000f0
:100128000c810000c4800000c8800000cc80000062
:100138000c8100000c8100000c8100000c81000083
:10014800d08000000c8100000c8100000c810000b0
:100158000c810000d48000000c8100000c8100009c
:100168000c810000d8800000dc800000e0800000e6
:10017800e4800000e8800000ec800000f0800000cf
:10018800f4800000f8800000fc800000008100007e
:1001980004810000088100000c8100000c8100002f
:1001a8000c8100000c8100000c8100000c81000013
:1001b8000c8100000c8100000c8100000c81000003
:1001c8000c8100000c8100000c8100000c810000f3
:1001d8000c8100000c8100000c8100000c810000e3
:1001e8000c8100000c8100000c8100000c810000d3
:0801f8000c8100000c810000e5
:020000040000fa
:020000040001f9
:1000000010810400000000000e82040000000000c7
:100010000e820400000000000e82040000000000b8
:100020000e820400000000000e82040000000000a8
:100030000e820400000000000e8204000000000098
:100040000e820400000000000e8204000000000088
:100050000e820400000000000e8204000000000078
:100060000e820400000000000e8204000000000068
:100070000e820400000000000e8204000000000058
:100080000e820400000000000e8204000000000048
:100090000e820400000000000e8204000000000038
:1000a0000e820400000000000e8204000000000028
:1000b0000e820400000000000e8204000000000018
:1000c0000e820400000000000e8204000000000008
:1000d0000e820400000000000e82040000000000f8
:1000e0000e820400000000000e82040000000000e8
:1000f0000e820400000000000e82040000000000d8
:100100000e820400000000000e82040000000000c7
:100110000e820400000000000e82040000000000b7
:100120000e820400000000000e82040000000000a7
:100130000e820400000000000e8204000000000097
:100140000e820400000000000e8204000000000087
:100150000e820400000000000e8204000000000077
:100160000e820400000000000e8204000000000067
:100170000e820400000000000e8204000000000057
:100180000e820400000000000e8204000000000047
:100190000e820400000000000e8204000000000037
:1001a0000e820400000000000e8204000000000027
:1001b0000e820400000000000e8204000000000017
:1001c0000e820400000000000e8204000000000007
:1001d0000e820400000000000e82040000000000f7
:1001e0000e820400000000000e82040000000000e7
:1001f0000e820400000000000e82040000000000d7
:100200000e820400000000000e82040000000000c6
:100210000e820400000000000e82040000000000b6
:020000040000fa
:020000040001f9
:100220000f8020000e7f24000e01880000000000d7
:100230000c00070020212800010020001100070009
:10024000000020000000e000020032000000020078
:1002500000000000a0810200000000000040da0061
:100260000000fe004440a900000020000000e00063
:100270000300320000002000a00188004440a800d4
:100280000000060091018800800078000000eb006b
:1002900015003700e280400032a0b4009101ba009e
:1002a000e280400032a0b4009102ba00e280400037
:1002b00032a0b4000002eb00472bde00f507b200cd
:1002c000602ce10004003a000059eb008301e900d2
:1002d000fdff3e00040037006128e100010032000c
:1002e0000082eb00040007001101ba000200e000e8
:1002f000e8ff3a00000006003159ba008301e90026
:100300000c0032002159ba008301e90008003200d4
:100310000400e00003003a00e280400032a0b40094
:10032000f5ff370011d9ba008301e900faff3a005e
:100330008100e800e180400032a0b4000000060027
:020000040000fa
:020000040001f9
:100340000000fa00a1178000f0c32f0000806000b9
:10035000a017880081178000f0c32f000080600084
:100360008017880061178000f0fc2f00008060007b
:100370006017880041178000f0fc2f0000806000ab
:1003800040178800411780000003200000807000a3
:100390004017880081178000003020000080700026
:1003a0008017880081178000000c2000008060000a
:1003b0008017880040d42100c101200009000700f7
:1003c000411780000003200000806800401788006b
:1003d00081178000000c20000080680080178800d2
:0403e000f4ff3700ef
:020000040000fa
:020000040001f9
:1003e400f03fb1000180b10006003500ee030900c2
:1003f40000000000403fb1000180b100fbff3d0060
:100404001000b000203fb000020035000080090059
:080414000000000000000600da
:020000040000fa
:020000040001f9
:08041c000040da000000fe00c0
:020000040000fa
:020000040001f9
:0404240000000000d4
:00000001FF
